:020000040800F2
:100000002811002089010008710400086B02000813
:100010006D040008410300088D090008000000007D
:100020000000000000000000000000000F060008B3
:100030004503000800000000F3010008F90600086D
:10004000A3010008A3010008A30100080D06000891
:10005000A3010008A3010008A3010008A3010008F0
:10006000A3010008A3010008A3010008A3010008E0
:10007000A3010008A3010008A3010008A3010008D0
:10008000A3010008A3010008A3010008A3010008C0
:10009000A3010008A3010008A3010008A3010008B0
:1000A000A3010008A3010008A3010008A3010008A0
:1000B000A3010008A3010008A3010008A301000890
:1000C000A3010008A3010008A3010008A301000880
:1000D000A30100080D0800082D080008A30100086E
:1000E000A3010008A3010008A301000800F002F822
:1000F00000F03AF80AA090E8000C82448344AAF188
:100100000107DA4501D100F02FF8AFF2090EBAE885
:100110000F0013F0010F18BFFB1A43F0010318473B
:10012000A41F0000C41F0000103A24BF78C878C183
:10013000FAD8520724BF30C830C144BF04680C60ED
:10014000704700000023002400250026103A28BF35
:1001500078C1FBD8520728BF30C148BF0B60704739
:100160001FB51FBD10B510BD00F0A9F81146FFF76F
:10017000F7FF00F0DEF800F0C7F803B4FFF7F2FF76
:1001800003BC00F0CFF80000094880470948004749
:10019000FEE7FEE7FEE7FEE7FEE7FEE7FEE7FEE737
:1001A000FEE7FEE704480549034A054B7047000097
:1001B000AD070008ED000008280D002028110020E0
:1001C000280D0020EFF3108072B6704780F310887E
:1001D0007047334A1368012B04D04FF001031360BA
:1001E000304A1060304A116030484FF08051016051
:1001F0007047EFF3108272B62948016891B14FF051
:10020000000101602748016829B1EFF3098121E964
:10021000F00F00680160244909680968B1E8F00F2F
:1002200081F3098882F310884EF0040E70471E494E
:1002300008601C494FF00000086019494FF00100A8
:1002400008601B484FF47F01D0F8002041EA02010A
:10025000016016484FF08051016016480068006840
:1002600080F3088861B662B670471EF0040F0CBFB9
:10027000EFF30880EFF3098020E9F00F40F804ED78
:100280001EF0040F0CBF80F3088880F3098800B5C6
:1002900000F0BCFE5DF804EB4EF0040E7047000069
:1002A00030000020280000202C00002004ED00E099
:1002B00020ED00E008ED00E070477047704775469C
:1002C00000F02CF8AE4605006946534620F00700C2
:1002D000854618B020B5FFF765FFBDE820404FF018
:1002E00000064FF000074FF000084FF0000B21F020
:1002F0000701AC46ACE8C009ACE8C009ACE8C009ED
:10030000ACE8C0098D46704710B50446AFF30080D5
:100310002046BDE81040FFF730BF0000004870479E
:10032000C80C002001491820ABBEFEE726000200E1
:10033000704710B5FFF746FF01F002FE002010BD28
:1003400000BFFEE770472DE9F04102460025002678
:10035000002000230024002791F803C00CF00F05B3
:1003600091F803C00CF0100CBCF1000F03D091F811
:1003700002C04CEA050591F800C0BCF1000F31D075
:10038000146800202BE04FF0010C0CFA00F3B1F8D8
:1003900000C00CEA03069E4220D183004FF00F0CF0
:1003A0000CFA03F7BC4305FA03FC4CEA040491F889
:1003B00003C0BCF1280F06D14FF0010C0CFA00FC71
:1003C000C2F814C00AE091F803C0BCF1480F05D18F
:1003D0004FF0010C0CFA00FCC2F810C0401C0828B9
:1003E000D1D31460B1F800C0BCF1FF0F34DD546804
:1003F00000202EE000F1080C4FF0010808FA0CF381
:10040000B1F800C00CEA03069E4221D183004FF0F0
:100410000F0C0CFA03F7BC4305FA03FC4CEA040486
:1004200091F803C0BCF1280F05D100F1080C08FABF
:100430000CF8C2F8148091F803C0BCF1480F07D142
:1004400000F1080C4FF0010808FA0CF8C2F810800F
:10045000401C0828CED35460BDE8F0814FF6FF71F0
:100460000180022181700421C170704700BFFEE746
:100470007047000070B5002100230F22C47804B338
:10048000154C246804F4E064C4F5E064210AC1F169
:100490000403CA40447804FA03F1847814402143E9
:1004A00009010E4C0678A155047804F01F050124BB
:1004B000AC4005786D11AD0005F1E025C5F80041AF
:1004C00009E0047804F01F050124AC40044D0678CF
:1004D000761145F8264070BD0CED00E000E400E028
:1004E00080E100E002490143024A116070470000C8
:1004F0000000FA050CED00E029B1064AD26902437A
:10050000044BDA6104E0034AD2698243014BDA61A9
:10051000704700000010024029B1064A9269024368
:10052000044B9A6104E0034A92698243014B9A6149
:10053000704700000010024030B500210022002466
:1005400000232D4D6D6805F00C0121B1042905D063
:10055000082923D105E0294D056022E0274D0560DB
:100560001FE0254D6D6805F47012234D6D6805F48C
:100570008034022505EB92421CB9214D554305609C
:100580000BE01D4D6D6805F400351DB11C4D554344
:10059000056002E0194D5543056002E0174D056006
:1005A00000BF00BF144D6D6805F0F0010909154D3D
:1005B0006B5C0568DD4045600F4D6D6805F4E061DA
:1005C000090A104D6B5C4568DD4085600A4D6D6819
:1005D00005F46051C90A0B4D6B5C4568DD40C56090
:1005E000054D6D6805F44041890B074D6B5CC5688E
:1005F000B5FBF3F5056130BD0010024000127A0032
:1006000000093D00000000201000002070477047E6
:1006100010B500F001F810BD0CB50020019000905D
:100620003348006840F480303149086000BF3048EA
:10063000006800F4003000900198401C0190009880
:1006400018B90198B0F5A06FF1D12948006800F4FD
:10065000003010B10120009001E0002000900098CF
:10066000012843D12348006840F010002149086068
:100670000846006820F0030008600846006840F063
:10068000020008601A4840681949486008464068F6
:1006900048600846406840F480604860084640680A
:1006A00020F47C1048600846406840F4E810486038
:1006B0000846006840F08070086000BF0C48006881
:1006C00000F000700028F9D00948406820F00300CD
:1006D000074948600846406840F00200486000BF93
:1006E0000348406800F00C000828F9D10CBD000058
:1006F000001002400020024010B500F0ADFD01F0F6
:1007000055F900F0B9FD10BD10B500210020002200
:10071000214B5B6803F00C0121B1042906D00829A4
:1007200028D107E01D4B1E4C236027E01B4B1C4CBF
:10073000236023E0184B5B6803F47010164B5B6872
:1007400003F48032022303EB904022B9154B43435C
:10075000134C23600DE0104B5B6803F4003323B1AE
:10076000104B43430E4C236003E00C4B43430C4CB3
:10077000236003E0094B0A4C236000BF00BF064B17
:100780005B68C3F30313084CE15C054B1B68CB406B
:10079000034C236010BD00000010024000127A00DC
:1007A0001400002000093D001800002010B5134877
:1007B000006840F00100114908600846406810498F
:1007C00008400E494860084600680E4908400B4939
:1007D00008600846006820F48020086008464068E9
:1007E00020F4FE0048604FF41F008860FFF710FF00
:1007F0004FF000600449086010BD00000010024086
:100800000000FFF8FFFFF6FE08ED00E00CB506481B
:10081000008801900448001D008800900249091DCD
:10082000009808800CBD0000003801400CB5064857
:10083000008801900448001D008800900248001DB7
:100840000088024908800CBD004400400438014083
:1008500021B1828942F40052828104E082894DF6FE
:10086000FF731A4082817047F0B5034600240026CA
:100870000025002040F66A17B94200D100BF184693
:10088000C1F3421401F01F06012707FA06F5012CF7
:1008900001D10C3004E0022C01D1103000E0143002
:1008A0001AB107682F43076002E00768AF4307608B
:1008B000F0BD00002DE9F04786B005460E46002445
:1008C000A24600BFA1460027B08900B100BF2F4655
:1008D0002C8A4CF6FF700440F08804432C82AC89CB
:1008E0004EF6F3100440B0883189084371890843FB
:1008F0000443AC81AC8A4FF6FF400440B089044306
:10090000AC8201A8FFF718FE1F48874202D1DDF82C
:1009100010A001E0DDF80CA0A88900F4004040B16F
:100920000AEBCA0000EB0A1031684900B0FBF1F88D
:1009300007E00AEBCA0000EB0A1031688900B0FB3F
:10094000F1F86420B8FBF0F004012009642101FBF8
:100950001089A88900F4004040B1322000EBC900A2
:10096000B0FBF1F000F00700044308E0322000EB98
:1009700009106421B0FBF1F000F00F0004432C815A
:1009800006B0BDE8F08700000038014000BFFEE778
:100990000146481EB0F1807F01D301207047481EF8
:1009A0004FF0E0225061FF20044A107000204FF009
:1009B000E0229061072010610020EFE723ED00E0C6
:1009C000014609B900207047C8B220B1C8B20E4A2A
:1009D000105C401CF7E701F47F4028B10A48C1F3DE
:1009E0000722805C0930EEE701F47F0028B1064859
:1009F000C1F30742805C1130E5E7034800EB11606A
:100A000000781930DFE70000901F000803490868EC
:100A1000884201D0012070470020FCE790000020B0
:100A20002DE9FC5F04468B4615461E46DDE90C9A0F
:100A3000DDE90E7804F114004060006000BF1C3452
:100A40006560A660C4F80C90C4F810A02321D4E916
:100A5000030200F05EFCD4E9033C63441A1F0F4B11
:100A6000D4E9010100F0D2FB2060A7766776002070
:100A7000E061C4F82080C4F824806061207660655D
:100A8000A0651C3C00902346054A2146019004F1D4
:100A9000440001F00DF80020BDE8FC9FDD160008C1
:100AA0001D1900082DE9F04704460E4617469846E2
:100AB000DDF8209084F80990607A20F001006072DF
:100AC000E66127620020A062C4F82480002506E0C9
:100AD00004F1140101EBC50000F0F9FB6D1C012DC0
:100AE000F6DBBDE8F08710B50246002001460EE0B7
:100AF00002F1140303EBC100D0E900436360D0E9C5
:100B0000003423604060006000BF481C014601299A
:100B1000EEDB10BD10B586B00446012144F204009E
:100B2000FFF7FAFC4FF40070ADF8140018208DF8B0
:100B3000170003208DF8160005A91E48FFF703FCD7
:100B40004FF48060ADF8140048208DF817000320A2
:100B50008DF8160005A91748FFF7F5FB0194002052
:100B6000ADF80800ADF80A00ADF80C00ADF81000C3
:100B70000C20ADF80E0001A90F48FFF79BFE2520C1
:100B80008DF8000001208DF8030000208DF8010091
:100B90008DF802006846FFF76DFC012240F22551F6
:100BA0000548FFF761FE01210348FFF751FE06B03B
:100BB00010BD0000000801400038014003E04FF480
:100BC0007A7000F084FDFAE710B586B00446012182
:100BD0004804FFF791FC0420ADF8140018208DF8AC
:100BE000170003208DF8160005A92048FFF7ABFB7E
:100BF0000820ADF8140048208DF8170003208DF868
:100C0000160005A91948FFF79EFB01940020ADF8D6
:100C10000800ADF80A00ADF80C00ADF810000C208B
:100C2000ADF80E0001A91248FFF744FE26208DF80A
:100C3000000001208DF8030000208DF801008DF8E0
:100C400002006846FFF716FC012240F225510848D1
:100C5000FFF70AFE012240F224410548FFF704FE97
:100C600001210348FFF7F4FD06B010BD0008014064
:100C70000044004008B56846FFF7F0FB012108205A
:100C8000FFF74AFC4FF48050ADF8000010208DF8BB
:100C9000030003208DF8020069460248FFF753FB6A
:100CA00008BD0000000C014013E00A48006840F451
:100CB000805008490860642000F009FD0548001DC7
:100CC000006840F480500349091D0860642000F06A
:100CD000FEFCEAE7100C01401FB54FF4A060FFF7DF
:100CE00001FCFFF7C7FF4FF4E130FFF713FF4FF4AC
:100CF0001650FFF769FF142004210A02124BCDE9B8
:100D00000032CDE902100023104A11A1134800F06F
:100D10006DFD142003214FF48062114BCDE90032A8
:100D2000CDE9021000230F4A0FA1114800F05EFD2B
:100D30000A4800F0BBFD0E4800F0B8FD02E0642058
:100D400000F0C5FCFBE7000094010020A90C00089E
:100D50006C65645F6F70657261746500A40000204B
:100D600094050020BD0B00086C65646F666600008A
:100D70001C01002010B5044600F0F8F8FFF7ACFFA6
:100D800010BD00002DE9F04F85B00D469C46DDE911
:100D90000F740E9B04F04008B8F1000F02D0DFF88A
:100DA000688101E0DFF86481CDF8008004F010086C
:100DB000B8F1000F01D024F0010404F00108B8F1EB
:100DC000000F02D04FF0300801E04FF02008C2467B
:100DD000002604F00208B8F1000F11D0002A02DA50
:100DE0002D2652420CE004F00408B8F1000F01D0A7
:100DF0002B2605E004F00808B8F1000F00D02026EB
:100E0000002142B94FF0300B8846491C0DF104090E
:100E100009F808B01DE01AE0E146B9F10A0F08D15F
:100E20004FF00A0BB2FBFBFE0BFB1E28B2FBFBF2E2
:100E300002E002F00F08120900BFDDF8009019F877
:100E400008B08846491C0DF1040909F808B0002AC9
:100E5000E2D1B94200DD0F46DB1B04F01108B8F106
:100E6000000F10D116B1002B00DD5B1E06E0A8427A
:100E700003D84FF0200880F80080401CB3F1000830
:100E8000A3F10103F3DC26B1A84201D806705B1E72
:100E9000401C04F01008B8F1000F0AD104E0A84289
:100EA00001D880F800A0401CB3F10008A3F10103B1
:100EB000F5DC06E0A84203D84FF0300880F8008047
:100EC000401CB8467F1E8845F4DC08E0A84205D8DF
:100ED0000DF1040818F8018080F80080401CB1F181
:100EE0000008A1F10101F1DC06E0A84203D84FF0AF
:100EF000200880F80080401CB3F10008A3F1010332
:100F0000F3DC05B0BDE8F08FA120000890200008B8
:100F10007FB50A4C14200221CA01094BCDE90032E9
:100F2000CDE902100023074A07A1204600F05EFC2D
:100F30000546204600F0BAFC7FBD0000980A00205C
:100F400098090020750D00086D61696E00000000B1
:100F500010B5044C02E020688047241D02488442FA
:100F6000F9D310BDB8200008BC20000810B5044C0F
:100F700002E020688047241D02488442F9D310BD56
:100F8000BC200008C020000810B5FFF71BF904467C
:100F900004480088401C00B2024908802046FFF740
:100FA00015F910BD8000002010B5FFF70BF90446BD
:100FB0000B480088401E00B2094908800846B0F975
:100FC0000000002807DC002008802046FFF7FEF81C
:100FD00000F01AFA02E02046FFF7F8F810BD000012
:100FE0008000002010B5FFF78FFB064800684FF423
:100FF0007A71B0FBF1F42046FFF7CAFCFFF7A8FFB7
:1010000010BD0000140000207047000070B50546B8
:101010002C1D2E48006838B128462C49096888479D
:10102000064606B970BD00BF29A0E16B00F034F997
:101030002BA0216A00F030F92DA0616A00F02CF994
:101040002FA0A16A00F028F931A0E16A00F024F98C
:1010500033A0216800F020F935A0616800F01CF988
:1010600037A0A16800F018F939A0E16800F014F980
:101070003BA0216900F010F93DA0616900F00CF976
:101080003FA0A16900F008F941A0E16900F004F96E
:1010900043A0216B00F000F945A0616B00F0FCF863
:1010A00047A0A16B00F0F8F8287800F0040038B1F0
:1010B00000F0D4FB0646314645A000F0EDF802E012
:1010C0004BA000F0E9F800BFFEE70000340000206C
:1010D0007073723A203078253038780A00000000AA
:1010E0007230303A203078253038780A000000001D
:1010F0007230313A203078253038780A000000000C
:101100007230323A203078253038780A00000000FA
:101110007230333A203078253038780A00000000E9
:101120007230343A203078253038780A00000000D8
:101130007230353A203078253038780A00000000C7
:101140007230363A203078253038780A00000000B6
:101150007230373A203078253038780A00000000A5
:101160007230383A203078253038780A0000000094
:101170007230393A203078253038780A0000000083
:101180007231303A203078253038780A000000007B
:101190007231313A203078253038780A000000006A
:1011A0007231323A203078253038780A0000000059
:1011B000206C723A203078253038780A0000000020
:1011C0002070633A203078253038780A000000001B
:1011D00068617264206661756C74206F6E2074683B
:1011E000726561643A2025730D0A0D0A0000000043
:1011F00068617264206661756C74206F6E2068612E
:101200006E646C65720D0A0D0A000000F0B50446AC
:101210000D461646301D20F00700403801460022DA
:1012200003E00C4F41F82270521C102AF9D30D62D2
:101230004FF0000CC1F824C0C1F828C0C1F82CC080
:10124000C1F830C04B638C634FF0807CC1F83CC068
:10125000F0BD0000EFBEADDE10B5FEF7B3FF0446F3
:1012600004480078401C034908702046FEF7AEFF92
:1012700010BD00003C00002010B5FEF7A3FF04469F
:1012800004480078401E034908702046FEF79EFF80
:1012900010BD00003C0000200FB438B505A8009038
:1012A0007F210848009B049A00F0AEFC04467F2C86
:1012B00000D97F240348FFF7A7FE0020009038BC28
:1012C0005DF814FB080C002040600060704740602F
:1012D000006070470268516002680A6001604860FF
:1012E00070470268516002680A6001604860704798
:1012F00001460868884201D1012070470020FCE7C0
:10130000D0E900215160D0E9001211604060006016
:101310007047F0B50C460546E6B2042A15D300F036
:10132000030797B9014646EA062343EA034304E06C
:1013300008C108C108C108C1103A102AF8D201E05A
:1013400008C1121F042AFBD20D4601E005F8016B0B
:10135000171EA2F10102F9D1F0BD70B504460020BC
:101360002072FEF72FFF054604F10C00D0E90021A2
:101370005160D0E9001211604060006000BF284653
:10138000FEF724FF70BD0000024600210AE0074876
:1013900000EB01100078904203D1044800EB0110EB
:1013A0007047491C0429F2DB0020F9E740000020C7
:1013B0002DE9F04104460D4616462846FFF7E4FFA6
:1013C000074645F08000207208223146204600F092
:1013D00016F9FEF7F7FE8046381D04F10C0102688D
:1013E000516002680A600160486000BF4046FEF735
:1013F000EDFEBDE8F0810146087A00F0800008B1FA
:10140000012070470020FCE72DE9F041FEF7DAFEED
:1014100007461B48008868BB1A480068FFF7D0FAE7
:10142000461E194850F83600A0F114041748006809
:1014300084421BD016490E70144805680460154894
:10144000007848B904F11C0105F11C00FEF7C1FE4B
:101450003846FEF7BBFE0CE004F11C0105F11C0050
:10146000FEF7B7FE3846FEF7B1FE02E03846FEF75B
:10147000ADFE02E03846FEF7A9FEBDE8F0810000AF
:10148000800000208C000020880C002084000020B8
:10149000880000203C00002070B50446FEF792FE54
:1014A000054614F8340F20F00F0040F001002070C2
:1014B0006278343C0A4B03EBC20004F11401426829
:1014C000116042684A604160086000BF0549A06B36
:1014D00009680843034908602846FEF777FE70BD97
:1014E000880C00208C00002070B50446FEF76AFED0
:1014F000054604F11400D0E900215160D0E9001242
:1015000011604060006000BF94F83510094A02EB9A
:10151000C1000168814201D1012100E0002129B10F
:101520000548A16B00688843034908602846FEF718
:101530004DFE70BD880C00208C00002008B509A06D
:10154000FFF7AAFE0AA0FFF7A7FE12A001231A4682
:101550000321009012A0FFF79FFE19A0FFF79CFE49
:1015600008BD00000A205C207C202F0A000000003B
:101570002D205254202D2020202020546872656197
:1015800064204F7065726174696E6720537973745B
:10159000656D0A00417072203232203230313900DC
:1015A000202F207C205C202020202025642E2564F4
:1015B0002E2564206275696C642025730A00000082
:1015C0002032303036202D203230313820436F70B9
:1015D0007972696768742062792072742D746872F8
:1015E000656164207465616D0A00000001460A4669
:1015F00000E0521C10780028FBD1501A704770B5DB
:101600000346A2B118460C4600BF14F8016B00F85F
:10161000016B3EB902E0002500F8015B551E2A1E51
:10162000F9D102E0551E2A1EEFD100BF00BF1846B7
:1016300070BD000010B500200B490880002405E0B3
:101640000A4901EBC400FFF73FFE641C082CF7DBDE
:10165000072007490870002006490860064908600D
:101660000648FFF731FE10BD80000020880C0020E6
:1016700088000020840000208C00002090000020C2
:1016800070B508480068FFF79BF9451E064850F8FA
:101690003500A0F114040548046004F11C00FEF7B5
:1016A000C6FD70BD8C000020880C00208400002046
:1016B00010B5002405E0044901EBC400FFF707FE64
:1016C000641C002CF7D010BD98000020704710B5A6
:1016D0000446204600F0C8F810BD000070B512485E
:1016E0000468FEF76FFD05462046FFF7FDFE042067
:1016F00084F8340004F1440000F0CAF92046FFF7F2
:101700007AFE012805D1206F18B92046FFF725FE83
:1017100004E004F114010548FFF7DCFD2846FEF75C
:1017200055FDFFF771FE70BD840000209000002081
:1017300001E000F001F8FCE770B531E0FEF742FD92
:101740000546FFF763F918B318480068A0F11404C0
:1017500004F11400D0E900215160D0E900121160B9
:101760004060006000BFFFF70FFC206F10B1204603
:10177000216F88472046FFF73EFE012805D1FFF77D
:1017800013FC2846FEF722FD70BDFFF70DFC03E0B9
:101790002846FEF71BFDF7E72846FEF717FD00BFBA
:1017A000FFF734F90028C9D100BFEDE79000002011
:1017B0001FB5202007218022074BCDE90032CDE95B
:1017C00002100023054A06A1074800F00FF806485A
:1017D00000F06CF81FBD0000880B002031170008D6
:1017E0007469646C65000000100B00202DE9FF5F38
:1017F00005460C4616461F46DDE910ABDDE90E89AD
:10180000224600212846FFF7D3FD3B4632462146BB
:1018100028468DE8000FFFF703F904B0BDE8F09FFC
:1018200070B5044694F8340000F00F00022802D08E
:101830004FF0FF3070BDFEF7C5FC054604F1140003
:10184000FFF75EFD04F1440000F0C6F92846FEF7FC
:10185000BDFC2046FFF720FE0020EBE701480068B2
:10186000704700008400002031B5FEF7ABFC054650
:101870000D480468204600F02FF86A46002104F164
:10188000440000F0E9F804F1440000F029F928468A
:10189000FEF79CFCFFF7B8FD206B801C08B9002008
:1018A0002063002038BD00008400002010B50446ED
:1018B0003434A07860706178012088406060022034
:1018C00004F834092046FFF7ABFFFFF7C7FF08B164
:1018D000FFF79AFD002010BD70B5044694F834005F
:1018E00000F00F00012802D04FF0FF3070BDFEF76E
:1018F00069FC054694F8340020F00F0040F0020027
:1019000084F834002046FFF7EFFD04F1440000F0B6
:1019100063F92846FEF75AFC0020E7E770B5044655
:1019200025466FF00100286305F11400FFF7E8FC7D
:101930002846FFF7B1FDFFF767FD70BD70B5FEF7F4
:1019400041FC05461448046894F8340000F00F0088
:1019500001281CD1D4E90510814218D004F11400EB
:10196000FFF7CEFC94F835200C4B03EBC20004F1DA
:1019700014014268116042684A604160086000BF1B
:101980002846FEF723FCFFF73FFD002070BD2846E8
:10199000FEF71CFC0020F9E784000020880C0020E2
:1019A00001480068704700003800002010B50A4860
:1019B0000068401C08490860FFF750FF0446206C8F
:1019C000401E2064206C18B9E06B2064FFF7B6FF5E
:1019D00000F004F810BD00003800002070B5FFF7DB
:1019E000DFFF0546FEF7EEFB064628E019480068D3
:1019F000A0F11404A06A281A6FF0004188421DD299
:101A00002046FFF770F8D4E907108847FFF7C8FFB2
:101A10000546607A00F0020058B1607A00F00100DB
:101A200038B1607A20F001006072204600F058F86A
:101A300005E0607A20F00100607200E004E00548F3
:101A4000FFF756FC0028D1D000BF3046FEF7BEFBA2
:101A500070BD000098000020034649B1012904D060
:101A6000022908D0032910D10AE0586A10600CE05E
:101A70001068586209E0587A20F00200587204E0B9
:101A8000587A40F00200587200BF00BF0020704733
:101A900070B50446FEF796FB05462046FFF723F88F
:101AA0002846FEF793FB2046FFF757FC002070BD49
:101AB0002DE9F84307460C4615461E46DDE9088920
:101AC000224609213846FFF773FC43463246294631
:101AD0003846CDF80090FEF7E5FFBDE8F88300003A
:101AE0002DE9F8430546FEF76DFB80462846FEF7D4
:101AF000FAFF687A20F0010068724046FEF766FB44
:101B0000FFF74EFF696A0844A862FEF75BFB804658
:101B10002F4F009700242AE019E05DF82420116877
:101B2000142202EBC402881A826AAB6AD21A00D16C
:101B300008E0826AAB6AD21A6FF000439A4200D280
:101B40000CE000BF5DF8240000684DF824005DF84B
:101B5000240007EBC40149688842DED100BF2CB1E4
:101B60005DF824000830611C4DF82100641C002C35
:101B7000D2D018480068401C16490860084606681C
:101B800005F114010098FFF7ACFB022412E006F007
:101B9000030060B9C4F1010305F1140202EBC301B3
:101BA000C4F101025DF82200FFF79BFB00E003E0B7
:101BB000B608641C012CEAD900BF687A40F0010025
:101BC00068724046FEF702FB0020BDE8F883000083
:101BD00098000020A000002070B50446607A00F054
:101BE000010010B94FF0FF3070BDFEF7EBFA05466B
:101BF0002046FEF778FF2846FEF7E8FA607A20F0E4
:101C0000010060720020EFE72DE9FF4F89B08046A8
:101C100044460A984044461E464504D24FF0FF36DB
:101C2000A6EB08000A906FE10B980078252806D0F3
:101C3000B44202D80B9800782070641C61E1002542
:101C400026E00B98401C0B900B9800782D2802D1B1
:101C500045F010051CE00B9800782B2802D145F0C8
:101C6000040515E00B980078202802D145F00805FE
:101C70000EE00B980078232802D145F0200507E0FC
:101C80000B980078302802D145F0010500E000E013
:101C9000D7E700BF4FF0FF370B98007830380A289D
:101CA00004D20BA800F061F907460EE00B9800780B
:101CB0002A280AD10B98401C0B900C9880C80C90D5
:101CC000002F02DA7F4245F010054FF0FF390B98E4
:101CD00000782E281CD10B98401C0B900B98007894
:101CE00030380A2804D20BA800F03FF981460AE0F8
:101CF0000B9800782A2806D10B98401C0B900C9862
:101D000050F8049B0C90B9F1000F01DA4FF0000974
:101D1000002004900B980078682803D00B98007876
:101D20006C2805D10B98007804900B98401C0B9000
:101D30000A2005900B9800786F2875D00CDC63287A
:101D400013D004DC252870D058286FD18DE064288A
:101D50006DD06928F9D18FE070286AD0732825D01A
:101D6000752878D07828F0D182E005F0100040B9CD
:101D700004E0B44201D820202070641C781E071EA5
:101D8000F7DC0C9810F8041B0C90C8B20790B44212
:101D900001D807982070641C04E0B44201D82020C8
:101DA0002070641C781E071EF7DCAAE00C980068FF
:101DB00006900C98001D0C90069808B95AA0069041
:101DC0000698FFF713FC8346B9F1000F02DDCB45FF
:101DD00000DDCB4605F0100048B904E0B44201D85C
:101DE00020202070641C38467F1E5845F6DC0020F9
:101DF00008900BE0B44202D8069800782070641C6A
:101E00000698401C06900898401C08900898584571
:101E1000F0DB04E0B44201D820202070641C384676
:101E20007F1E5845F6DC6CE01CE015E028E022E05F
:101E3000FFE7781C10B9082745F00105CDE90079C6
:101E400002950C9804C8102331460C902046FEF7EA
:101E500099FF044655E012E0B44201D825202070D5
:101E6000641C4EE0082005901DE045F0400500BFD1
:101E70001020059017E000BF45F0020500BF12E0FA
:101E8000B44201D825202070641C0B98007830B132
:101E9000B44202D80B9800782070641C02E00B98C2
:101EA000401E0B902DE000BF04986C2807D10C98C1
:101EB00050F804AB0C9005F00200B8B116E004989D
:101EC00068280BD10C9830F8041B1FFA81FA0C908B
:101ED00005F0020050B10FFA8AFA07E00C9850F8AA
:101EE00004AB0C9005F0020000B100BFCDE9007911
:101EF0000295524631462046059BFEF743FF0446B5
:101F000000BF0B98401C0B900B98007800287FF4C2
:101F10008BAEB44201D8207001E000203070A4EBF9
:101F200008000DB0BDE8F08F284E554C4C2900003C
:101F30000020704700207047002070470020704745
:101F400010B5FEF73FF9FFF74DF8FFF7F7FAFFF787
:101F5000AFFBFFF76FFBFEF7DBFFFFF7B7FBFFF70A
:101F600027FCFFF78DFB002010BD0146002009E093
:101F70000B685A1C0A601A7800EB800302EB4302DC
:101F8000A2F130000A681278303A0A2AF0D370477A
:101F90000000010002000100030001000200010036
:101FA0000400010002000100030001000200010022
:101FB0000500010002000100030001000200010011
:101FC0000400010002000100030001000200010002
:101FD00006000100020001000300010002000100F0
:101FE00004000100020001000300010002000100E2
:101FF00005000100020001000300010002000100D1
:1020000004000100020001000300010002000100C1
:1020100007000100020001000300010002000100AE
:1020200004000100020001000300010002000100A1
:102030000500010002000100030001000200010090
:102040000400010002000100030001000200010081
:10205000060001000200010003000100020001006F
:102060000400010002000100030001000200010061
:102070000500010002000100030001000200010050
:102080000400010002000100030001000200010041
:1020900030313233343536373839616263646566DE
:1020A00000303132333435363738394142434445D4
:1020B000460000003D1F0008351F0008311F0008C2
:1020C000391F0008E420000800000020A4000000E0
:1020D0002801000888210008A400002084100000C6
:1020E000440100080000000001020304010203048F
:1020F000060708090204060800A24A0400000000BE
:1021000000000000010203040607080900000000A7
:1021100000000000000000000000000000000000BF
:1021200000000000000000004400002044000020E7
:10213000780000000100000054000020540000203E
:102140002000000004000000640000206400002063
:10215000300000000900000074000020740000201E
:102160002C00000000000000000000000000000043
:10217000000000000000000000000000000000005F
:08218000000000000000000057
:040000050800018965
:00000001FF
